{
  "_format": "hh-sol-artifact-1",
  "contractName": "product_identification",
  "sourceName": "contracts/product_identification.sol",
  "abi": [
    {
      "inputs": [
        {
          "internalType": "string",
          "name": "_manufacturerId",
          "type": "string"
        }
      ],
      "name": "VerifyManufacturer",
      "outputs": [],
      "stateMutability": "nonpayable",
      "type": "function"
    },
    {
      "inputs": [
        {
          "internalType": "string",
          "name": "product_Id",
          "type": "string"
        },
        {
          "internalType": "string",
          "name": "serial_No",
          "type": "string"
        }
      ],
      "name": "check_fake",
      "outputs": [],
      "stateMutability": "nonpayable",
      "type": "function"
    },
    {
      "inputs": [
        {
          "internalType": "string",
          "name": "a",
          "type": "string"
        },
        {
          "internalType": "string",
          "name": "b",
          "type": "string"
        }
      ],
      "name": "compareStrings",
      "outputs": [
        {
          "internalType": "bool",
          "name": "",
          "type": "bool"
        }
      ],
      "stateMutability": "pure",
      "type": "function"
    },
    {
      "inputs": [
        {
          "internalType": "string",
          "name": "_brand",
          "type": "string"
        },
        {
          "internalType": "string",
          "name": "_product_Id",
          "type": "string"
        },
        {
          "internalType": "uint256",
          "name": "_status",
          "type": "uint256"
        },
        {
          "internalType": "string",
          "name": "_manufacuterId",
          "type": "string"
        },
        {
          "internalType": "string",
          "name": "_manufactuerName",
          "type": "string"
        },
        {
          "internalType": "string",
          "name": "_manufactuerLocation",
          "type": "string"
        },
        {
          "internalType": "string",
          "name": "_serialNo",
          "type": "string"
        },
        {
          "internalType": "string",
          "name": "_retailerId",
          "type": "string"
        }
      ],
      "name": "createProduct",
      "outputs": [],
      "stateMutability": "nonpayable",
      "type": "function"
    },
    {
      "inputs": [
        {
          "internalType": "string",
          "name": "_name",
          "type": "string"
        },
        {
          "internalType": "string",
          "name": "_phno",
          "type": "string"
        },
        {
          "internalType": "string",
          "name": "_location",
          "type": "string"
        },
        {
          "internalType": "string",
          "name": "_retailerId",
          "type": "string"
        }
      ],
      "name": "createRetailer",
      "outputs": [],
      "stateMutability": "nonpayable",
      "type": "function"
    },
    {
      "inputs": [
        {
          "internalType": "string",
          "name": "_name",
          "type": "string"
        },
        {
          "internalType": "string",
          "name": "_id",
          "type": "string"
        },
        {
          "internalType": "string",
          "name": "_location",
          "type": "string"
        },
        {
          "internalType": "string",
          "name": "_serialNo",
          "type": "string"
        }
      ],
      "name": "create_customer",
      "outputs": [],
      "stateMutability": "nonpayable",
      "type": "function"
    },
    {
      "inputs": [],
      "name": "custOutput",
      "outputs": [
        {
          "internalType": "string",
          "name": "",
          "type": "string"
        }
      ],
      "stateMutability": "view",
      "type": "function"
    },
    {
      "inputs": [],
      "name": "customerOutput",
      "outputs": [
        {
          "internalType": "string",
          "name": "",
          "type": "string"
        }
      ],
      "stateMutability": "view",
      "type": "function"
    },
    {
      "inputs": [],
      "name": "flag",
      "outputs": [
        {
          "internalType": "bool",
          "name": "",
          "type": "bool"
        }
      ],
      "stateMutability": "view",
      "type": "function"
    },
    {
      "inputs": [],
      "name": "getValue1",
      "outputs": [
        {
          "internalType": "string",
          "name": "",
          "type": "string"
        }
      ],
      "stateMutability": "view",
      "type": "function"
    },
    {
      "inputs": [],
      "name": "getValue2",
      "outputs": [
        {
          "internalType": "string",
          "name": "",
          "type": "string"
        }
      ],
      "stateMutability": "view",
      "type": "function"
    },
    {
      "inputs": [],
      "name": "getValue3",
      "outputs": [
        {
          "internalType": "string",
          "name": "",
          "type": "string"
        }
      ],
      "stateMutability": "view",
      "type": "function"
    },
    {
      "inputs": [],
      "name": "isManufacturerVeryfied",
      "outputs": [
        {
          "internalType": "string",
          "name": "",
          "type": "string"
        }
      ],
      "stateMutability": "view",
      "type": "function"
    },
    {
      "inputs": [],
      "name": "manufacturerOutput",
      "outputs": [
        {
          "internalType": "string",
          "name": "",
          "type": "string"
        }
      ],
      "stateMutability": "view",
      "type": "function"
    },
    {
      "inputs": [
        {
          "internalType": "uint256",
          "name": "",
          "type": "uint256"
        }
      ],
      "name": "manufacturer_id",
      "outputs": [
        {
          "internalType": "string",
          "name": "",
          "type": "string"
        }
      ],
      "stateMutability": "view",
      "type": "function"
    },
    {
      "inputs": [],
      "name": "proFlag",
      "outputs": [
        {
          "internalType": "bool",
          "name": "",
          "type": "bool"
        }
      ],
      "stateMutability": "view",
      "type": "function"
    },
    {
      "inputs": [],
      "name": "proOutput",
      "outputs": [
        {
          "internalType": "string",
          "name": "",
          "type": "string"
        }
      ],
      "stateMutability": "view",
      "type": "function"
    },
    {
      "inputs": [],
      "name": "productOutput",
      "outputs": [
        {
          "internalType": "string",
          "name": "",
          "type": "string"
        }
      ],
      "stateMutability": "view",
      "type": "function"
    },
    {
      "inputs": [],
      "name": "retOutput",
      "outputs": [
        {
          "internalType": "string",
          "name": "",
          "type": "string"
        }
      ],
      "stateMutability": "view",
      "type": "function"
    },
    {
      "inputs": [],
      "name": "retailerOutput",
      "outputs": [
        {
          "internalType": "string",
          "name": "",
          "type": "string"
        }
      ],
      "stateMutability": "view",
      "type": "function"
    },
    {
      "inputs": [],
      "name": "status",
      "outputs": [
        {
          "internalType": "uint256",
          "name": "",
          "type": "uint256"
        }
      ],
      "stateMutability": "view",
      "type": "function"
    }
  ],
  "bytecode": "0x608060405260405180606001604052806040518060400160405280600281526020017f6d3100000000000000000000000000000000000000000000000000000000000081525081526020016040518060400160405280600281526020017f6d3200000000000000000000000000000000000000000000000000000000000081525081526020016040518060400160405280600281526020017f6d330000000000000000000000000000000000000000000000000000000000008152508152506000906003620000d09291906200011b565b506000600960006101000a81548160ff0219169083151502179055506000600c60006101000a81548160ff0219169083151502179055503480156200011457600080fd5b5062000305565b8280548282559060005260206000209081019282156200016f579160200282015b828111156200016e5782518290805190602001906200015d92919062000182565b50916020019190600101906200013c565b5b5090506200017e919062000213565b5090565b8280546200019090620002cf565b90600052602060002090601f016020900481019282620001b4576000855562000200565b82601f10620001cf57805160ff191683800117855562000200565b8280016001018555821562000200579182015b82811115620001ff578251825591602001919060010190620001e2565b5b5090506200020f91906200023b565b5090565b5b808211156200023757600081816200022d91906200025a565b5060010162000214565b5090565b5b80821115620002565760008160009055506001016200023c565b5090565b5080546200026890620002cf565b6000825580601f106200027c57506200029d565b601f0160209004906000526020600020908101906200029c91906200023b565b5b50565b7f4e487b7100000000000000000000000000000000000000000000000000000000600052602260045260246000fd5b60006002820490506001821680620002e857607f821691505b60208210811415620002ff57620002fe620002a0565b5b50919050565b6120ae80620003156000396000f3fe608060405234801561001057600080fd5b50600436106101375760003560e01c8063890eba68116100b8578063c515205d1161007c578063c515205d1461031c578063dbc03e971461033a578063f2d14b0014610358578063f59f4b2d14610376578063f76f8a9e14610392578063f7e5e7be146103b057610137565b8063890eba681461027657806389e3cc29146102945780639e04334d146102b2578063bed34bba146102d0578063c2fcccc01461030057610137565b80635b515e32116100ff5780635b515e32146101ce5780635cba21d1146101ec5780635de1088f1461021c57806360d586f81461023a5780636b126da41461025857610137565b806310eb184b1461013c578063200d2ed2146101585780633768539b146101765780634aff05ec1461019457806353640b4e146101b2575b600080fd5b61015660048036038101906101519190611a15565b6103cc565b005b610160610519565b60405161016d9190611b05565b60405180910390f35b61017e61051f565b60405161018b9190611ba8565b60405180910390f35b61019c6105b1565b6040516101a99190611ba8565b60405180910390f35b6101cc60048036038101906101c79190611bf6565b61063f565b005b6101d661088c565b6040516101e39190611ba8565b60405180910390f35b61020660048036038101906102019190611d70565b61091a565b6040516102139190611ba8565b60405180910390f35b6102246109c6565b6040516102319190611ba8565b60405180910390f35b610242610a54565b60405161024f9190611ba8565b60405180910390f35b610260610ae6565b60405161026d9190611db8565b60405180910390f35b61027e610af9565b60405161028b9190611db8565b60405180910390f35b61029c610b0c565b6040516102a99190611ba8565b60405180910390f35b6102ba610b9e565b6040516102c79190611ba8565b60405180910390f35b6102ea60048036038101906102e59190611dd3565b610c30565b6040516102f79190611db8565b60405180910390f35b61031a60048036038101906103159190611a15565b610c56565b005b610324610de0565b6040516103319190611ba8565b60405180910390f35b610342610e72565b60405161034f9190611ba8565b60405180910390f35b610360610f00565b60405161036d9190611ba8565b60405180910390f35b610390600480360381019061038b9190611e4b565b610f92565b005b61039a61111f565b6040516103a79190611ba8565b60405180910390f35b6103ca60048036038101906103c59190611dd3565b6111b1565b005b6103d46116fe565b60026001819055508481600001819052508381602001819052508281604001819052508181606001819052506005846040516104109190611ed0565b908152602001604051809103902082908060018154018082558091505060019003906000526020600020016000909190919091509080519060200190610457929190611726565b5060011515600c60009054906101000a900460ff16151514156104c5576040518060400160405280601b81526020017f437573746f6d6572204164646564205375636365737366756c6c790000000000815250600e90805190602001906104bf929190611726565b50610512565b6040518060400160405280601481526020017f437573746f6d65722063616e2774206164646564000000000000000000000000815250600e9080519060200190610510929190611726565b505b5050505050565b60015481565b6060600b805461052e90611f16565b80601f016020809104026020016040519081016040528092919081815260200182805461055a90611f16565b80156105a75780601f1061057c576101008083540402835291602001916105a7565b820191906000526020600020905b81548152906001019060200180831161058a57829003601f168201915b5050505050905090565b600e80546105be90611f16565b80601f01602080910402602001604051908101604052809291908181526020018280546105ea90611f16565b80156106375780601f1061060c57610100808354040283529160200191610637565b820191906000526020600020905b81548152906001019060200180831161061a57829003601f168201915b505050505081565b6106476117ac565b88816000018190525087816020018190525086600181905550858160400181905250848160600181905250838160800181905250818160c0018190525060011515600960009054906101000a900460ff161515141561085157806008846040516106b19190611ed0565b908152602001604051809103902060008201518160000190805190602001906106db929190611726565b5060208201518160010190805190602001906106f8929190611726565b506040820151816002019080519060200190610715929190611726565b506060820151816003019080519060200190610732929190611726565b50608082015181600401908051906020019061074f929190611726565b5060a082015181600501908051906020019061076c929190611726565b5060c0820151816006019080519060200190610789929190611726565b5090505060078860405161079d9190611ed0565b9081526020016040518091039020839080600181540180825580915050600190039060005260206000200160009091909190915090805190602001906107e4929190611726565b506040518060400160405280601a81526020017f50726f64756374204164646564205375636365737366756c6c79000000000000815250600b9080519060200190610830929190611726565b506001600c60006101000a81548160ff021916908315150217905550610881565b60405180606001604052806028815260200161205160289139600b908051906020019061087f929190611726565b505b505050505050505050565b600d805461089990611f16565b80601f01602080910402602001604051908101604052809291908181526020018280546108c590611f16565b80156109125780601f106108e757610100808354040283529160200191610912565b820191906000526020600020905b8154815290600101906020018083116108f557829003601f168201915b505050505081565b6000818154811061092a57600080fd5b90600052602060002001600091509050805461094590611f16565b80601f016020809104026020016040519081016040528092919081815260200182805461097190611f16565b80156109be5780601f10610993576101008083540402835291602001916109be565b820191906000526020600020905b8154815290600101906020018083116109a157829003601f168201915b505050505081565b600b80546109d390611f16565b80601f01602080910402602001604051908101604052809291908181526020018280546109ff90611f16565b8015610a4c5780601f10610a2157610100808354040283529160200191610a4c565b820191906000526020600020905b815481529060010190602001808311610a2f57829003601f168201915b505050505081565b606060028054610a6390611f16565b80601f0160208091040260200160405190810160405280929190818152602001828054610a8f90611f16565b8015610adc5780601f10610ab157610100808354040283529160200191610adc565b820191906000526020600020905b815481529060010190602001808311610abf57829003601f168201915b5050505050905090565b600c60009054906101000a900460ff1681565b600960009054906101000a900460ff1681565b6060600d8054610b1b90611f16565b80601f0160208091040260200160405190810160405280929190818152602001828054610b4790611f16565b8015610b945780601f10610b6957610100808354040283529160200191610b94565b820191906000526020600020905b815481529060010190602001808311610b7757829003601f168201915b5050505050905090565b6060600a8054610bad90611f16565b80601f0160208091040260200160405190810160405280929190818152602001828054610bd990611f16565b8015610c265780601f10610bfb57610100808354040283529160200191610c26565b820191906000526020600020905b815481529060010190602001808311610c0957829003601f168201915b5050505050905090565b600080839050600083905080805190602001208280519060200120149250505092915050565b610c5e6117e9565b6001808190555084816000018190525083816020018190525082816040018190525081816060018190525080600683604051610c9a9190611ed0565b90815260200160405180910390206000820151816000019080519060200190610cc4929190611726565b506020820151816001019080519060200190610ce1929190611726565b506040820151816002019080519060200190610cfe929190611726565b506060820151816003019080519060200190610d1b929190611726565b5090505060011515600c60009054906101000a900460ff1615151415610d8c576040518060400160405280601b81526020017f52657461696c6572204164646564205375636365737366756c6c790000000000815250600d9080519060200190610d86929190611726565b50610dd9565b6040518060400160405280601481526020017f52657461696c65722063616e2774206164646564000000000000000000000000815250600d9080519060200190610dd7929190611726565b505b5050505050565b606060038054610def90611f16565b80601f0160208091040260200160405190810160405280929190818152602001828054610e1b90611f16565b8015610e685780601f10610e3d57610100808354040283529160200191610e68565b820191906000526020600020905b815481529060010190602001808311610e4b57829003601f168201915b5050505050905090565b600a8054610e7f90611f16565b80601f0160208091040260200160405190810160405280929190818152602001828054610eab90611f16565b8015610ef85780601f10610ecd57610100808354040283529160200191610ef8565b820191906000526020600020905b815481529060010190602001808311610edb57829003601f168201915b505050505081565b606060048054610f0f90611f16565b80601f0160208091040260200160405190810160405280929190818152602001828054610f3b90611f16565b8015610f885780601f10610f5d57610100808354040283529160200191610f88565b820191906000526020600020905b815481529060010190602001808311610f6b57829003601f168201915b5050505050905090565b60005b600381101561109b5761104e8260008381548110610fb657610fb5611f48565b5b906000526020600020018054610fcb90611f16565b80601f0160208091040260200160405190810160405280929190818152602001828054610ff790611f16565b80156110445780601f1061101957610100808354040283529160200191611044565b820191906000526020600020905b81548152906001019060200180831161102757829003601f168201915b5050505050610c30565b600960006101000a81548160ff02191690831515021790555060011515600960009054906101000a900460ff16151514156110885761109b565b808061109390611fa6565b915050610f95565b60011515600960009054906101000a900460ff16151514156110eb57604051806060016040528060228152602001611ff060229139600a90805190602001906110e5929190611726565b5061111b565b6040518060600160405280603f8152602001612012603f9139600a9080519060200190611119929190611726565b505b5050565b6060600e805461112e90611f16565b80601f016020809104026020016040519081016040528092919081815260200182805461115a90611f16565b80156111a75780601f1061117c576101008083540402835291602001916111a7565b820191906000526020600020905b81548152906001019060200180831161118a57829003601f168201915b5050505050905090565b600080806007856040516111c59190611ed0565b9081526020016040518091039020805490509050600091505b808210156116055760006007866040516111f89190611ed0565b908152602001604051809103902060008154811061121957611218611f48565b5b90600052602060002001805461122e90611f16565b80601f016020809104026020016040519081016040528092919081815260200182805461125a90611f16565b80156112a75780601f1061127c576101008083540402835291602001916112a7565b820191906000526020600020905b81548152906001019060200180831161128a57829003601f168201915b505050505090506000859050600115156112c18383610c30565b151514156115f057600194506000600154141561138e576008866040516112e89190611ed0565b9081526020016040518091039020600201600290805461130790611f16565b611312929190611811565b506008866040516113239190611ed0565b9081526020016040518091039020600401600390805461134290611f16565b61134d929190611811565b5060088660405161135e9190611ed0565b9081526020016040518091039020600301600490805461137d90611f16565b611388929190611811565b506115ef565b6001805414156114fd5760006008876040516113aa9190611ed0565b908152602001604051809103902060060180546113c690611f16565b80601f01602080910402602001604051908101604052809291908181526020018280546113f290611f16565b801561143f5780601f106114145761010080835404028352916020019161143f565b820191906000526020600020905b81548152906001019060200180831161142257829003601f168201915b505050505090506006816040516114569190611ed0565b9081526020016040518091039020600001600290805461147590611f16565b611480929190611811565b506006816040516114919190611ed0565b908152602001604051809103902060010160039080546114b090611f16565b6114bb929190611811565b506006816040516114cc9190611ed0565b908152602001604051809103902060020160049080546114eb90611f16565b6114f6929190611811565b50506115ee565b600260015414156115ed576040518060400160405280600a81526020017f497420697320776974680000000000000000000000000000000000000000000081525060029080519060200190611553929190611726565b506040518060400160405280600481526020017f736f6d65000000000000000000000000000000000000000000000000000000008152506003908051906020019061159f929190611726565b506040518060400160405280600981526020017f6375746f6d65722e2e0000000000000000000000000000000000000000000000815250600490805190602001906115eb929190611726565b505b5b5b5b505081806115fd90611fa6565b9250506111de565b6000151583151514156116f7576040518060400160405280600581526020017f69747320610000000000000000000000000000000000000000000000000000008152506002908051906020019061165d929190611726565b506040518060400160405280600481526020017f66616b6500000000000000000000000000000000000000000000000000000000815250600390805190602001906116a9929190611726565b506040518060400160405280601781526020017f6e6f2070726f647563742061732073756368206d616465000000000000000000815250600490805190602001906116f5929190611726565b505b5050505050565b6040518060800160405280606081526020016060815260200160608152602001606081525090565b82805461173290611f16565b90600052602060002090601f016020900481019282611754576000855561179b565b82601f1061176d57805160ff191683800117855561179b565b8280016001018555821561179b579182015b8281111561179a57825182559160200191906001019061177f565b5b5090506117a8919061189e565b5090565b6040518060e00160405280606081526020016060815260200160608152602001606081526020016060815260200160608152602001606081525090565b6040518060800160405280606081526020016060815260200160608152602001606081525090565b82805461181d90611f16565b90600052602060002090601f01602090048101928261183f576000855561188d565b82601f10611850578054855561188d565b8280016001018555821561188d57600052602060002091601f016020900482015b8281111561188c578254825591600101919060010190611871565b5b50905061189a919061189e565b5090565b5b808211156118b757600081600090555060010161189f565b5090565b6000604051905090565b600080fd5b600080fd5b600080fd5b600080fd5b6000601f19601f8301169050919050565b7f4e487b7100000000000000000000000000000000000000000000000000000000600052604160045260246000fd5b611922826118d9565b810181811067ffffffffffffffff82111715611941576119406118ea565b5b80604052505050565b60006119546118bb565b90506119608282611919565b919050565b600067ffffffffffffffff8211156119805761197f6118ea565b5b611989826118d9565b9050602081019050919050565b82818337600083830152505050565b60006119b86119b384611965565b61194a565b9050828152602081018484840111156119d4576119d36118d4565b5b6119df848285611996565b509392505050565b600082601f8301126119fc576119fb6118cf565b5b8135611a0c8482602086016119a5565b91505092915050565b60008060008060808587031215611a2f57611a2e6118c5565b5b600085013567ffffffffffffffff811115611a4d57611a4c6118ca565b5b611a59878288016119e7565b945050602085013567ffffffffffffffff811115611a7a57611a796118ca565b5b611a86878288016119e7565b935050604085013567ffffffffffffffff811115611aa757611aa66118ca565b5b611ab3878288016119e7565b925050606085013567ffffffffffffffff811115611ad457611ad36118ca565b5b611ae0878288016119e7565b91505092959194509250565b6000819050919050565b611aff81611aec565b82525050565b6000602082019050611b1a6000830184611af6565b92915050565b600081519050919050565b600082825260208201905092915050565b60005b83811015611b5a578082015181840152602081019050611b3f565b83811115611b69576000848401525b50505050565b6000611b7a82611b20565b611b848185611b2b565b9350611b94818560208601611b3c565b611b9d816118d9565b840191505092915050565b60006020820190508181036000830152611bc28184611b6f565b905092915050565b611bd381611aec565b8114611bde57600080fd5b50565b600081359050611bf081611bca565b92915050565b600080600080600080600080610100898b031215611c1757611c166118c5565b5b600089013567ffffffffffffffff811115611c3557611c346118ca565b5b611c418b828c016119e7565b985050602089013567ffffffffffffffff811115611c6257611c616118ca565b5b611c6e8b828c016119e7565b9750506040611c7f8b828c01611be1565b965050606089013567ffffffffffffffff811115611ca057611c9f6118ca565b5b611cac8b828c016119e7565b955050608089013567ffffffffffffffff811115611ccd57611ccc6118ca565b5b611cd98b828c016119e7565b94505060a089013567ffffffffffffffff811115611cfa57611cf96118ca565b5b611d068b828c016119e7565b93505060c089013567ffffffffffffffff811115611d2757611d266118ca565b5b611d338b828c016119e7565b92505060e089013567ffffffffffffffff811115611d5457611d536118ca565b5b611d608b828c016119e7565b9150509295985092959890939650565b600060208284031215611d8657611d856118c5565b5b6000611d9484828501611be1565b91505092915050565b60008115159050919050565b611db281611d9d565b82525050565b6000602082019050611dcd6000830184611da9565b92915050565b60008060408385031215611dea57611de96118c5565b5b600083013567ffffffffffffffff811115611e0857611e076118ca565b5b611e14858286016119e7565b925050602083013567ffffffffffffffff811115611e3557611e346118ca565b5b611e41858286016119e7565b9150509250929050565b600060208284031215611e6157611e606118c5565b5b600082013567ffffffffffffffff811115611e7f57611e7e6118ca565b5b611e8b848285016119e7565b91505092915050565b600081905092915050565b6000611eaa82611b20565b611eb48185611e94565b9350611ec4818560208601611b3c565b80840191505092915050565b6000611edc8284611e9f565b915081905092915050565b7f4e487b7100000000000000000000000000000000000000000000000000000000600052602260045260246000fd5b60006002820490506001821680611f2e57607f821691505b60208210811415611f4257611f41611ee7565b5b50919050565b7f4e487b7100000000000000000000000000000000000000000000000000000000600052603260045260246000fd5b7f4e487b7100000000000000000000000000000000000000000000000000000000600052601160045260246000fd5b6000611fb182611aec565b91507fffffffffffffffffffffffffffffffffffffffffffffffffffffffffffffffff821415611fe457611fe3611f77565b5b60018201905091905056fe4d616e756661637475726572207665726966696564207375636365737366756c6c794d616e75666163747572657220496420697320696e76616c69642c506c6561736520656e74657220636f7272656374204d616e75666163747572657220496457726f6e67206d616e7566616374757265722c2050726f64756374206973206e6f74204164646564a264697066735822122089bfcfc3124b6763397bf3f71c404d7df43e72eadc9e8f31579482a290a74c4a64736f6c63430008090033",
  "linkReferences": {},
  "deployedLinkReferences": {}
}